{
  "contractName": "MediVaultVerification",
  "abi": [
    {
      "inputs": [],
      "stateMutability": "nonpayable",
      "type": "constructor"
    },
    {
      "anonymous": false,
      "inputs": [
        {
          "indexed": true,
          "internalType": "bytes32",
          "name": "fileHash",
          "type": "bytes32"
        },
        {
          "indexed": false,
          "internalType": "string",
          "name": "cid",
          "type": "string"
        },
        {
          "indexed": true,
          "internalType": "address",
          "name": "uploaderID",
          "type": "address"
        },
        {
          "indexed": true,
          "internalType": "bytes32",
          "name": "patientBCCode",
          "type": "bytes32"
        },
        {
          "indexed": false,
          "internalType": "uint256",
          "name": "timestamp",
          "type": "uint256"
        }
      ],
      "name": "FileUploaded",
      "type": "event"
    },
    {
      "anonymous": false,
      "inputs": [
        {
          "indexed": true,
          "internalType": "bytes32",
          "name": "fileHash",
          "type": "bytes32"
        },
        {
          "indexed": true,
          "internalType": "bytes32",
          "name": "patientBCCode",
          "type": "bytes32"
        },
        {
          "indexed": false,
          "internalType": "bool",
          "name": "authentic",
          "type": "bool"
        },
        {
          "indexed": false,
          "internalType": "uint256",
          "name": "timestamp",
          "type": "uint256"
        }
      ],
      "name": "FileVerified",
      "type": "event"
    },
    {
      "inputs": [],
      "name": "owner",
      "outputs": [
        {
          "internalType": "address",
          "name": "",
          "type": "address"
        }
      ],
      "stateMutability": "view",
      "type": "function",
      "constant": true
    },
    {
      "inputs": [
        {
          "internalType": "bytes32",
          "name": "fileHash",
          "type": "bytes32"
        },
        {
          "internalType": "string",
          "name": "cid",
          "type": "string"
        },
        {
          "internalType": "bytes32",
          "name": "patientBCCode",
          "type": "bytes32"
        }
      ],
      "name": "addFileRecord",
      "outputs": [],
      "stateMutability": "nonpayable",
      "type": "function"
    },
    {
      "inputs": [
        {
          "internalType": "bytes32",
          "name": "fileHash",
          "type": "bytes32"
        },
        {
          "internalType": "bytes32",
          "name": "patientBCCode",
          "type": "bytes32"
        }
      ],
      "name": "verifyFile",
      "outputs": [
        {
          "internalType": "bool",
          "name": "",
          "type": "bool"
        }
      ],
      "stateMutability": "nonpayable",
      "type": "function"
    },
    {
      "inputs": [
        {
          "internalType": "bytes32",
          "name": "patientBCCode",
          "type": "bytes32"
        }
      ],
      "name": "getFilesByBCCode",
      "outputs": [
        {
          "components": [
            {
              "internalType": "bytes32",
              "name": "fileHash",
              "type": "bytes32"
            },
            {
              "internalType": "string",
              "name": "cid",
              "type": "string"
            },
            {
              "internalType": "address",
              "name": "uploaderID",
              "type": "address"
            },
            {
              "internalType": "uint256",
              "name": "timestamp",
              "type": "uint256"
            },
            {
              "internalType": "bool",
              "name": "exists",
              "type": "bool"
            }
          ],
          "internalType": "struct MediVaultVerification.DocumentRecord[]",
          "name": "",
          "type": "tuple[]"
        }
      ],
      "stateMutability": "view",
      "type": "function",
      "constant": true
    }
  ],
  "bytecode": "0x60a060405234801561000f575f80fd5b50336080526080516108496100325f395f8181607b015261028101526108495ff3fe608060405234801561000f575f80fd5b506004361061004a575f3560e01c80635c12768f1461004e5780638da5cb5b14610076578063b3833b7a146100b5578063d4b25e61146100d5575b5f80fd5b61006161005c3660046104f4565b6100ea565b60405190151581526020015b60405180910390f35b61009d7f000000000000000000000000000000000000000000000000000000000000000081565b6040516001600160a01b03909116815260200161006d565b6100c86100c3366004610514565b610145565b60405161006d919061052b565b6100e86100e3366004610609565b610276565b005b5f82815260016020908152604080832054815160ff90911680151582524293820193909352849186917fc64094e19037a1b5fb3fed7bc13b6c5574bc62494573dd8e5cec478bde9b72ac910160405180910390a39392505050565b5f81815260208181526040808320805482518185028101850190935280835260609492939192909184015b8282101561026b578382905f5260205f2090600502016040518060a00160405290815f82015481526020016001820180546101aa90610684565b80601f01602080910402602001604051908101604052809291908181526020018280546101d690610684565b80156102215780601f106101f857610100808354040283529160200191610221565b820191905f5260205f20905b81548152906001019060200180831161020457829003601f168201915b505050918352505060028201546001600160a01b03166020808301919091526003830154604083015260049092015460ff1615156060909101529082526001929092019101610170565b505050509050919050565b336001600160a01b037f000000000000000000000000000000000000000000000000000000000000000016146102f35760405162461bcd60e51b815260206004820152601e60248201527f4d6564695661756c743a2043616c6c6572206973206e6f74206f776e6572000060448201526064015b60405180910390fd5b5f8481526001602052604090205460ff161561035d5760405162461bcd60e51b815260206004820152602360248201527f4d6564695661756c743a2046696c65206861736820616c72656164792065786960448201526273747360e81b60648201526084016102ea565b816103aa5760405162461bcd60e51b815260206004820152601e60248201527f4d6564695661756c743a204349442063616e6e6f7420626520656d707479000060448201526064016102ea565b5f6040518060a0016040528086815260200185858080601f0160208091040260200160405190810160405280939291908181526020018383808284375f92018290525093855250503360208085019190915242604080860191909152600160609095018590528784528382528320805480860182559084529281902085516005909402019283558401519394508493919283019161044991508261071c565b506040828101516002830180546001600160a01b039092166001600160a01b0319909216919091179055606083015160038301556080909201516004909101805491151560ff199283161790555f87815260016020819052908390208054909216179055518290339087907f9e733be1cb366a505b9b8286c6d4c18a80e3007dc578dfa3e1071fb8955a8533906104e5908990899042906107dc565b60405180910390a45050505050565b5f8060408385031215610505575f80fd5b50508035926020909101359150565b5f60208284031215610524575f80fd5b5035919050565b5f60208083018184528085518083526040925060408601915060408160051b8701018488015f5b838110156105fb57603f19898403018552815160a08151855288820151818a870152805180838801525f92505b8083101561059d578183018b015187840160c00152918a019161057f565b60c092505f8382890101528984015191506105c28a8801836001600160a01b03169052565b6060848101519088015260809384015180151585890152939150978a0197601f01601f1916959095010193505090860190600101610552565b509098975050505050505050565b5f805f806060858703121561061c575f80fd5b84359350602085013567ffffffffffffffff8082111561063a575f80fd5b818701915087601f83011261064d575f80fd5b81358181111561065b575f80fd5b88602082850101111561066c575f80fd5b95986020929092019750949560400135945092505050565b600181811c9082168061069857607f821691505b6020821081036106b657634e487b7160e01b5f52602260045260245ffd5b50919050565b634e487b7160e01b5f52604160045260245ffd5b601f82111561071757805f5260205f20601f840160051c810160208510156106f55750805b601f840160051c820191505b81811015610714575f8155600101610701565b50505b505050565b815167ffffffffffffffff811115610736576107366106bc565b61074a816107448454610684565b846106d0565b602080601f83116001811461077d575f84156107665750858301515b5f19600386901b1c1916600185901b1785556107d4565b5f85815260208120601f198616915b828110156107ab5788860151825594840194600190910190840161078c565b50858210156107c857878501515f19600388901b60f8161c191681555b505060018460011b0185555b505050505050565b60408152826040820152828460608301375f606084830101525f6060601f19601f860116830101905082602083015294935050505056fea2646970667358221220a6618759b9037991e451ff95013576d8d42b46024950d68fe4006cbd2c48bd8d64736f6c63430008180033",
  "immutableReferences": {
    "824": [
      {
        "length": 32,
        "start": 123
      },
      {
        "length": 32,
        "start": 641
      }
    ]
  },
  "source": "// SPDX-License-Identifier: MIT\r\npragma solidity ^0.8.24;\r\n\r\n/**\r\n * @title MediVaultVerification\r\n * @dev Handles verification and tracking of medical documents stored on IPFS\r\n * \r\n * Security considerations:\r\n * - Only trusted backend can add records\r\n * - File hashes include multiple components to prevent collisions\r\n * - Patient records are efficiently indexed by their blockchain code\r\n */\r\ncontract MediVaultVerification {\r\n    // Struct to store document metadata with minimal gas usage\r\n    struct DocumentRecord {\r\n        bytes32 fileHash;     // SHA256(encrypted file + CID + uploaderID + timestamp)\r\n        string cid;          // IPFS Content ID\r\n        address uploaderID;  // Address of the uploader (for audit)\r\n        uint256 timestamp;   // Upload timestamp\r\n        bool exists;         // For verification checks\r\n    }\r\n\r\n    // Owner of the contract (backend wallet)\r\n    address public immutable owner;\r\n\r\n    // Mapping: patientBCCode => array of document records\r\n    mapping(bytes32 => DocumentRecord[]) private patientRecords;\r\n    \r\n    // Mapping: fileHash => bool to quickly verify if a file exists\r\n    mapping(bytes32 => bool) private fileExists;\r\n\r\n    // Event emitted when a new file is uploaded\r\n    event FileUploaded(\r\n        bytes32 indexed fileHash,\r\n        string cid,\r\n        address indexed uploaderID,\r\n        bytes32 indexed patientBCCode,\r\n        uint256 timestamp\r\n    );\r\n\r\n    // Event emitted when verification is performed\r\n    event FileVerified(\r\n        bytes32 indexed fileHash,\r\n        bytes32 indexed patientBCCode,\r\n        bool authentic,\r\n        uint256 timestamp\r\n    );\r\n\r\n    // Modifier to restrict access to owner only\r\n    modifier onlyOwner() {\r\n        require(msg.sender == owner, \"MediVault: Caller is not owner\");\r\n        _;\r\n    }\r\n\r\n    constructor() {\r\n        owner = msg.sender;\r\n    }\r\n\r\n    /**\r\n     * @dev Add a new file record to the blockchain\r\n     * @param fileHash SHA256 hash of (encrypted file + CID + uploaderID + timestamp)\r\n     * @param cid IPFS Content ID where the encrypted file is stored\r\n     * @param patientBCCode Unique blockchain code for the patient\r\n     */\r\n    function addFileRecord(\r\n        bytes32 fileHash,\r\n        string calldata cid,\r\n        bytes32 patientBCCode\r\n    ) external onlyOwner {\r\n        require(!fileExists[fileHash], \"MediVault: File hash already exists\");\r\n        require(bytes(cid).length > 0, \"MediVault: CID cannot be empty\");\r\n\r\n        // Create new record\r\n        DocumentRecord memory newRecord = DocumentRecord({\r\n            fileHash: fileHash,\r\n            cid: cid,\r\n            uploaderID: msg.sender,\r\n            timestamp: block.timestamp,\r\n            exists: true\r\n        });\r\n\r\n        // Store record\r\n        patientRecords[patientBCCode].push(newRecord);\r\n        fileExists[fileHash] = true;\r\n\r\n        // Emit event\r\n        emit FileUploaded(\r\n            fileHash,\r\n            cid,\r\n            msg.sender,\r\n            patientBCCode,\r\n            block.timestamp\r\n        );\r\n    }\r\n\r\n    /**\r\n     * @dev Verify if a file is authentic and unmodified\r\n     * @param fileHash Hash to verify\r\n     * @param patientBCCode Patient's blockchain code\r\n     * @return bool True if file exists and is authentic\r\n     */\r\n    function verifyFile(bytes32 fileHash, bytes32 patientBCCode) \r\n        external \r\n        returns (bool)\r\n    {\r\n        bool authentic = fileExists[fileHash];\r\n        \r\n        emit FileVerified(\r\n            fileHash,\r\n            patientBCCode,\r\n            authentic,\r\n            block.timestamp\r\n        );\r\n        \r\n        return authentic;\r\n    }\r\n\r\n    /**\r\n     * @dev Get all files for a specific patient\r\n     * @param patientBCCode Patient's blockchain code\r\n     * @return DocumentRecord[] Array of patient's document records\r\n     */\r\n    function getFilesByBCCode(bytes32 patientBCCode)\r\n        external\r\n        view\r\n        returns (DocumentRecord[] memory)\r\n    {\r\n        return patientRecords[patientBCCode];\r\n    }\r\n}",
  "sourcePath": "C:\\Users\\Swed\\OneDrive\\Desktop\\MediVault\\medivault-chain\\contracts\\MediVaultVerification.sol",
  "compiler": {
    "name": "solc",
    "version": "0.8.24+commit.e11b9ed9.Emscripten.clang"
  },
  "schemaVersion": "3.4.16",
  "updatedAt": "2025-10-26T16:55:07.565Z",
  "networkType": "ethereum",
  "devdoc": {
    "details": "Handles verification and tracking of medical documents stored on IPFS  Security considerations: - Only trusted backend can add records - File hashes include multiple components to prevent collisions - Patient records are efficiently indexed by their blockchain code",
    "kind": "dev",
    "methods": {
      "addFileRecord(bytes32,string,bytes32)": {
        "details": "Add a new file record to the blockchain",
        "params": {
          "cid": "IPFS Content ID where the encrypted file is stored",
          "fileHash": "SHA256 hash of (encrypted file + CID + uploaderID + timestamp)",
          "patientBCCode": "Unique blockchain code for the patient"
        }
      },
      "getFilesByBCCode(bytes32)": {
        "details": "Get all files for a specific patient",
        "params": {
          "patientBCCode": "Patient's blockchain code"
        },
        "returns": {
          "_0": "DocumentRecord[] Array of patient's document records"
        }
      },
      "verifyFile(bytes32,bytes32)": {
        "details": "Verify if a file is authentic and unmodified",
        "params": {
          "fileHash": "Hash to verify",
          "patientBCCode": "Patient's blockchain code"
        },
        "returns": {
          "_0": "bool True if file exists and is authentic"
        }
      }
    },
    "title": "MediVaultVerification",
    "version": 1
  },
  "userdoc": {
    "kind": "user",
    "methods": {},
    "version": 1
  }
}