{
  "contractName": "MediVaultAccess",
  "abi": [
    {
      "inputs": [],
      "stateMutability": "nonpayable",
      "type": "constructor"
    },
    {
      "anonymous": false,
      "inputs": [
        {
          "indexed": true,
          "internalType": "address",
          "name": "deleter",
          "type": "address"
        },
        {
          "indexed": true,
          "internalType": "address",
          "name": "patientAddress",
          "type": "address"
        },
        {
          "indexed": false,
          "internalType": "string",
          "name": "ipfsHash",
          "type": "string"
        },
        {
          "indexed": false,
          "internalType": "uint256",
          "name": "timestamp",
          "type": "uint256"
        }
      ],
      "name": "DocumentDeleted",
      "type": "event"
    },
    {
      "anonymous": false,
      "inputs": [
        {
          "indexed": true,
          "internalType": "address",
          "name": "uploader",
          "type": "address"
        },
        {
          "indexed": true,
          "internalType": "address",
          "name": "patientAddress",
          "type": "address"
        },
        {
          "indexed": false,
          "internalType": "string",
          "name": "ipfsHash",
          "type": "string"
        },
        {
          "indexed": false,
          "internalType": "string",
          "name": "fileName",
          "type": "string"
        },
        {
          "indexed": false,
          "internalType": "uint256",
          "name": "timestamp",
          "type": "uint256"
        }
      ],
      "name": "DocumentUploaded",
      "type": "event"
    },
    {
      "anonymous": false,
      "inputs": [
        {
          "indexed": true,
          "internalType": "address",
          "name": "user",
          "type": "address"
        },
        {
          "indexed": false,
          "internalType": "enum MediVaultAccess.Role",
          "name": "role",
          "type": "uint8"
        }
      ],
      "name": "UserRegistered",
      "type": "event"
    },
    {
      "inputs": [
        {
          "internalType": "address",
          "name": "",
          "type": "address"
        }
      ],
      "name": "userRoles",
      "outputs": [
        {
          "internalType": "enum MediVaultAccess.Role",
          "name": "",
          "type": "uint8"
        }
      ],
      "stateMutability": "view",
      "type": "function",
      "constant": true
    },
    {
      "inputs": [
        {
          "internalType": "address",
          "name": "user",
          "type": "address"
        },
        {
          "internalType": "enum MediVaultAccess.Role",
          "name": "role",
          "type": "uint8"
        }
      ],
      "name": "registerUser",
      "outputs": [],
      "stateMutability": "nonpayable",
      "type": "function"
    },
    {
      "inputs": [
        {
          "internalType": "string",
          "name": "ipfsHash",
          "type": "string"
        },
        {
          "internalType": "string",
          "name": "fileName",
          "type": "string"
        },
        {
          "internalType": "address",
          "name": "patientAddress",
          "type": "address"
        }
      ],
      "name": "uploadDocument",
      "outputs": [],
      "stateMutability": "nonpayable",
      "type": "function"
    },
    {
      "inputs": [
        {
          "internalType": "address",
          "name": "patientAddress",
          "type": "address"
        },
        {
          "internalType": "uint256",
          "name": "documentIndex",
          "type": "uint256"
        }
      ],
      "name": "deleteDocument",
      "outputs": [],
      "stateMutability": "nonpayable",
      "type": "function"
    },
    {
      "inputs": [
        {
          "internalType": "address",
          "name": "patientAddress",
          "type": "address"
        }
      ],
      "name": "getPatientDocuments",
      "outputs": [
        {
          "components": [
            {
              "internalType": "string",
              "name": "ipfsHash",
              "type": "string"
            },
            {
              "internalType": "string",
              "name": "fileName",
              "type": "string"
            },
            {
              "internalType": "address",
              "name": "uploader",
              "type": "address"
            },
            {
              "internalType": "address",
              "name": "patientAddress",
              "type": "address"
            },
            {
              "internalType": "uint256",
              "name": "timestamp",
              "type": "uint256"
            },
            {
              "internalType": "bool",
              "name": "isDeleted",
              "type": "bool"
            }
          ],
          "internalType": "struct MediVaultAccess.Document[]",
          "name": "",
          "type": "tuple[]"
        }
      ],
      "stateMutability": "view",
      "type": "function",
      "constant": true
    },
    {
      "inputs": [],
      "name": "getMyUploadedDocuments",
      "outputs": [
        {
          "components": [
            {
              "internalType": "string",
              "name": "ipfsHash",
              "type": "string"
            },
            {
              "internalType": "string",
              "name": "fileName",
              "type": "string"
            },
            {
              "internalType": "address",
              "name": "uploader",
              "type": "address"
            },
            {
              "internalType": "address",
              "name": "patientAddress",
              "type": "address"
            },
            {
              "internalType": "uint256",
              "name": "timestamp",
              "type": "uint256"
            },
            {
              "internalType": "bool",
              "name": "isDeleted",
              "type": "bool"
            }
          ],
          "internalType": "struct MediVaultAccess.Document[]",
          "name": "",
          "type": "tuple[]"
        }
      ],
      "stateMutability": "view",
      "type": "function",
      "constant": true
    },
    {
      "inputs": [
        {
          "internalType": "address",
          "name": "user",
          "type": "address"
        }
      ],
      "name": "getUserRole",
      "outputs": [
        {
          "internalType": "enum MediVaultAccess.Role",
          "name": "",
          "type": "uint8"
        }
      ],
      "stateMutability": "view",
      "type": "function",
      "constant": true
    },
    {
      "inputs": [
        {
          "internalType": "address",
          "name": "user",
          "type": "address"
        }
      ],
      "name": "isRegistered",
      "outputs": [
        {
          "internalType": "bool",
          "name": "",
          "type": "bool"
        }
      ],
      "stateMutability": "view",
      "type": "function",
      "constant": true
    }
  ],
  "bytecode": "0x608060405234801561001057600080fd5b503360008181526020819052604090819020805460ff1916600190811790915590517f8e18574f8a7333e6a87112742a55853a643e2f0550f4e1a3a2c3f1bb2994441d9161005d9161006a565b60405180910390a2610092565b602081016006831061008c57634e487b7160e01b600052602160045260246000fd5b91905290565b61156a806100a16000396000f3fe608060405234801561001057600080fd5b50600436106100885760003560e01c80638f85b98a1161005b5780638f85b98a1461011c5780639e9fa0971461012f578063c3c5a54714610142578063ef353be51461016557600080fd5b80631fe5994b1461008d57806327820851146100a2578063319d5bdb146100e457806374d5e100146100f9575b600080fd5b6100a061009b3660046110a4565b610178565b005b6100ce6100b0366004611118565b6001600160a01b031660009081526020819052604090205460ff1690565b6040516100db9190611150565b60405180910390f35b6100ec6105ec565b6040516100db91906111c8565b6100ce610107366004611118565b60006020819052908152604090205460ff1681565b6100ec61012a366004611118565b61072c565b6100a061013d366004611287565b610b3d565b610155610150366004611118565b610cc7565b60405190151581526020016100db565b6100a06101733660046112c2565b610cff565b3360009081526020819052604081205460ff16600581111561019c5761019c61113a565b036101c25760405162461bcd60e51b81526004016101b9906112ec565b60405180910390fd5b60008351116102085760405162461bcd60e51b815260206004820152601260248201527112541194c81a185cda081c995c5d5a5c995960721b60448201526064016101b9565b600082511161024e5760405162461bcd60e51b8152602060048201526012602482015271119a5b19481b985b59481c995c5d5a5c995960721b60448201526064016101b9565b60013360009081526020819052604090205460ff1660058111156102745761027461113a565b036102cf576001600160a01b0381166102ca5760405162461bcd60e51b815260206004820152601860248201527714185d1a595b9d081859191c995cdcc81c995c5d5a5c995960421b60448201526064016101b9565b610458565b60023360009081526020819052604090205460ff1660058111156102f5576102f561113a565b1480610324575060033360009081526020819052604090205460ff1660058111156103225761032261113a565b145b156103f6576001600160a01b03811661037a5760405162461bcd60e51b815260206004820152601860248201527714185d1a595b9d081859191c995cdcc81c995c5d5a5c995960421b60448201526064016101b9565b60056001600160a01b03821660009081526020819052604090205460ff1660058111156103a9576103a961113a565b146102ca5760405162461bcd60e51b815260206004820152601860248201527f546172676574206d75737420626520612070617469656e74000000000000000060448201526064016101b9565b60405162461bcd60e51b815260206004820152603160248201527f4f6e6c792041646d696e2c20446f63746f722c206f72204e757273652063616e6044820152702075706c6f616420646f63756d656e747360781b60648201526084016101b9565b6040805160c081018252848152602080820185905233828401526001600160a01b03841660608301819052426080840152600060a0840181905290815260018083529381208054948501815581522081519192839260069091029091019081906104c290826113a2565b50602082015160018201906104d790826113a2565b506040828101516002830180546001600160a01b03199081166001600160a01b039384161790915560608501516003850180549092169083161790556080840151600484015560a0909301516005909201805460ff19169215159290921790915590831660009081526001602081905291812054909161055691611478565b9050806003866040516105699190611491565b908152604080519182900360209081018320939093556001600160a01b03861660008181526004855291822080546001810182559083529390912090920183905533907f14031514a102acd406598c9f4f0fce223d677c46cf6979da0930f54eea7a22cb906105dd908990899042906114ad565b60405180910390a35050505050565b606060003360009081526020819052604090205460ff1660058111156106145761061461113a565b036106315760405162461bcd60e51b81526004016101b9906112ec565b60013360009081526020819052604090205460ff1660058111156106575761065761113a565b1480610686575060023360009081526020819052604090205460ff1660058111156106845761068461113a565b145b806106b4575060033360009081526020819052604090205460ff1660058111156106b2576106b261113a565b145b6107265760405162461bcd60e51b815260206004820152603860248201527f4f6e6c792041646d696e2c20446f63746f722c206f72204e757273652063616e60448201527f20766965772075706c6f6164656420646f63756d656e7473000000000000000060648201526084016101b9565b50606090565b606060003360009081526020819052604090205460ff1660058111156107545761075461113a565b036107715760405162461bcd60e51b81526004016101b9906112ec565b60053360009081526020819052604090205460ff1660058111156107975761079761113a565b0361080757336001600160a01b038316146108075760405162461bcd60e51b815260206004820152602a60248201527f50617469656e74732063616e206f6e6c792076696577207468656972206f776e60448201526920646f63756d656e747360b01b60648201526084016101b9565b6001600160a01b038216600090815260016020908152604080832080548251818502810185019093528083529192909190849084015b828210156109d457838290600052602060002090600602016040518060c001604052908160008201805461087090611319565b80601f016020809104026020016040519081016040528092919081815260200182805461089c90611319565b80156108e95780601f106108be576101008083540402835291602001916108e9565b820191906000526020600020905b8154815290600101906020018083116108cc57829003601f168201915b5050505050815260200160018201805461090290611319565b80601f016020809104026020016040519081016040528092919081815260200182805461092e90611319565b801561097b5780601f106109505761010080835404028352916020019161097b565b820191906000526020600020905b81548152906001019060200180831161095e57829003601f168201915b505050918352505060028201546001600160a01b03908116602080840191909152600384015490911660408301526004830154606083015260059092015460ff161515608090910152908252600192909201910161083d565b5050505090506000805b8251811015610a29578281815181106109f9576109f96114e3565b602002602001015160a00151610a175781610a13816114f9565b9250505b80610a21816114f9565b9150506109de565b5060008167ffffffffffffffff811115610a4557610a45610fe5565b604051908082528060200260200182016040528015610aa857816020015b6040805160c081018252606080825260208201819052600092820183905281018290526080810182905260a0810191909152815260200190600190039081610a635790505b5090506000805b8451811015610b3257848181518110610aca57610aca6114e3565b602002602001015160a00151610b2057848181518110610aec57610aec6114e3565b6020026020010151838381518110610b0657610b066114e3565b60200260200101819052508180610b1c906114f9565b9250505b80610b2a816114f9565b915050610aaf565b509095945050505050565b60013360009081526020819052604090205460ff166005811115610b6357610b6361113a565b14610bb05760405162461bcd60e51b815260206004820152601a60248201527f416363657373207265737472696374656420746f2041646d696e00000000000060448201526064016101b9565b6000816005811115610bc457610bc461113a565b03610c005760405162461bcd60e51b815260206004820152600c60248201526b496e76616c696420726f6c6560a01b60448201526064016101b9565b6001600160a01b038216610c485760405162461bcd60e51b815260206004820152600f60248201526e496e76616c6964206164647265737360881b60448201526064016101b9565b6001600160a01b0382166000908152602081905260409020805482919060ff19166001836005811115610c7d57610c7d61113a565b0217905550816001600160a01b03167f8e18574f8a7333e6a87112742a55853a643e2f0550f4e1a3a2c3f1bb2994441d82604051610cbb9190611150565b60405180910390a25050565b6000806001600160a01b03831660009081526020819052604090205460ff166005811115610cf757610cf761113a565b141592915050565b60013360009081526020819052604090205460ff166005811115610d2557610d2561113a565b14610d725760405162461bcd60e51b815260206004820152601a60248201527f416363657373207265737472696374656420746f2041646d696e00000000000060448201526064016101b9565b6001600160a01b0382166000908152600160205260409020548110610dd25760405162461bcd60e51b8152602060048201526016602482015275092dcecc2d8d2c840c8dec6eadacadce840d2dcc8caf60531b60448201526064016101b9565b6001600160a01b0382166000908152600160205260409020805482908110610dfc57610dfc6114e3565b600091825260209091206005600690920201015460ff1615610e605760405162461bcd60e51b815260206004820152601860248201527f446f63756d656e7420616c72656164792064656c65746564000000000000000060448201526064016101b9565b6001600160a01b0382166000908152600160208190526040909120805483908110610e8d57610e8d6114e3565b60009182526020808320600560069093020191909101805493151560ff199485161790556001600160a01b038516808352600282526040808420868552835280842080549095166001908117909555908352929052908120805483908110610ef757610ef76114e3565b90600052602060002090600602016000018054610f1390611319565b80601f0160208091040260200160405190810160405280929190818152602001828054610f3f90611319565b8015610f8c5780601f10610f6157610100808354040283529160200191610f8c565b820191906000526020600020905b815481529060010190602001808311610f6f57829003601f168201915b50505050509050826001600160a01b0316336001600160a01b03167f02e21935b98ed6d2c35b9abd2e2e8bb712e0f25835d69eb24b8d88a05aa959618342604051610fd8929190611512565b60405180910390a3505050565b634e487b7160e01b600052604160045260246000fd5b600082601f83011261100c57600080fd5b813567ffffffffffffffff8082111561102757611027610fe5565b604051601f8301601f19908116603f0116810190828211818310171561104f5761104f610fe5565b8160405283815286602085880101111561106857600080fd5b836020870160208301376000602085830101528094505050505092915050565b80356001600160a01b038116811461109f57600080fd5b919050565b6000806000606084860312156110b957600080fd5b833567ffffffffffffffff808211156110d157600080fd5b6110dd87838801610ffb565b945060208601359150808211156110f357600080fd5b5061110086828701610ffb565b92505061110f60408501611088565b90509250925092565b60006020828403121561112a57600080fd5b61113382611088565b9392505050565b634e487b7160e01b600052602160045260246000fd5b602081016006831061117257634e487b7160e01b600052602160045260246000fd5b91905290565b60005b8381101561119357818101518382015260200161117b565b50506000910152565b600081518084526111b4816020860160208601611178565b601f01601f19169290920160200192915050565b60006020808301818452808551808352604092508286019150828160051b87010184880160005b8381101561127957603f19898403018552815160c081518186526112158287018261119c565b915050888201518582038a87015261122d828261119c565b898401516001600160a01b03908116888c0152606080860151909116908801526080808501519088015260a09384015115159390960192909252505093860193908601906001016111ef565b509098975050505050505050565b6000806040838503121561129a57600080fd5b6112a383611088565b91506020830135600681106112b757600080fd5b809150509250929050565b600080604083850312156112d557600080fd5b6112de83611088565b946020939093013593505050565b602080825260139082015272155cd95c881b9bdd081c9959da5cdd195c9959606a1b604082015260600190565b600181811c9082168061132d57607f821691505b60208210810361134d57634e487b7160e01b600052602260045260246000fd5b50919050565b601f82111561139d57600081815260208120601f850160051c8101602086101561137a5750805b601f850160051c820191505b8181101561139957828155600101611386565b5050505b505050565b815167ffffffffffffffff8111156113bc576113bc610fe5565b6113d0816113ca8454611319565b84611353565b602080601f83116001811461140557600084156113ed5750858301515b600019600386901b1c1916600185901b178555611399565b600085815260208120601f198616915b8281101561143457888601518255948401946001909101908401611415565b50858210156114525787850151600019600388901b60f8161c191681555b5050505050600190811b01905550565b634e487b7160e01b600052601160045260246000fd5b8181038181111561148b5761148b611462565b92915050565b600082516114a3818460208701611178565b9190910192915050565b6060815260006114c0606083018661119c565b82810360208401526114d2818661119c565b915050826040830152949350505050565b634e487b7160e01b600052603260045260246000fd5b60006001820161150b5761150b611462565b5060010190565b604081526000611525604083018561119c565b9050826020830152939250505056fea26469706673582212205fc1fc24a0842c9b2bee4b04036f8d8c18b9863e0ca0d326c833b65eda57697c64736f6c63430008130033",
  "immutableReferences": {},
  "source": "// SPDX-License-Identifier: MIT\r\npragma solidity ^0.8.19;\r\n\r\ncontract MediVaultAccess {\r\n\r\n    enum Role { None, Admin, Doctor, Nurse, Student, Patient }\r\n\r\n    struct Document {\r\n        string ipfsHash;\r\n        string fileName;\r\n        address uploader;\r\n        address patientAddress; // Patient who owns this document\r\n        uint256 timestamp;\r\n        bool isDeleted;\r\n    }\r\n\r\n    mapping(address => Role) public userRoles;\r\n    mapping(address => Document[]) private userDocuments;\r\n    mapping(address => mapping(uint256 => bool)) private documentDeleted; // user => docIndex => deleted\r\n    mapping(string => uint256) private documentIndexByHash; // ipfsHash => document index\r\n    mapping(address => uint256[]) private patientDocuments; // patientAddress => document indices\r\n\r\n    event UserRegistered(address indexed user, Role role);\r\n    event DocumentUploaded(\r\n        address indexed uploader, \r\n        address indexed patientAddress,\r\n        string ipfsHash, \r\n        string fileName,\r\n        uint256 timestamp\r\n    );\r\n    event DocumentDeleted(\r\n        address indexed deleter,\r\n        address indexed patientAddress,\r\n        string ipfsHash,\r\n        uint256 timestamp\r\n    );\r\n\r\n    modifier onlyAdmin() {\r\n        require(userRoles[msg.sender] == Role.Admin, \"Access restricted to Admin\");\r\n        _;\r\n    }\r\n\r\n    modifier onlyDoctorOrNurse() {\r\n        require(\r\n            userRoles[msg.sender] == Role.Doctor || userRoles[msg.sender] == Role.Nurse,\r\n            \"Access restricted to Doctor or Nurse\"\r\n        );\r\n        _;\r\n    }\r\n\r\n    modifier onlyDoctorNurseOrAdmin() {\r\n        require(\r\n            userRoles[msg.sender] == Role.Doctor || \r\n            userRoles[msg.sender] == Role.Nurse || \r\n            userRoles[msg.sender] == Role.Admin,\r\n            \"Access restricted to Doctor, Nurse, or Admin\"\r\n        );\r\n        _;\r\n    }\r\n\r\n    modifier onlyValidRole() {\r\n        require(userRoles[msg.sender] != Role.None, \"User not registered\");\r\n        _;\r\n    }\r\n\r\n    constructor() {\r\n        userRoles[msg.sender] = Role.Admin;\r\n        emit UserRegistered(msg.sender, Role.Admin);\r\n    }\r\n\r\n    function registerUser(address user, Role role) public onlyAdmin {\r\n        require(role != Role.None, \"Invalid role\");\r\n        require(user != address(0), \"Invalid address\");\r\n        userRoles[user] = role;\r\n        emit UserRegistered(user, role);\r\n    }\r\n\r\n    // Admin, Doctor, Nurse can upload documents\r\n    // Admin can upload for any patient\r\n    // Doctor/Nurse can upload for patients\r\n    function uploadDocument(\r\n        string memory ipfsHash,\r\n        string memory fileName,\r\n        address patientAddress\r\n    ) public onlyValidRole {\r\n        require(bytes(ipfsHash).length > 0, \"IPFS hash required\");\r\n        require(bytes(fileName).length > 0, \"File name required\");\r\n        \r\n        // Admin can upload for any patient\r\n        if (userRoles[msg.sender] == Role.Admin) {\r\n            require(patientAddress != address(0), \"Patient address required\");\r\n        } \r\n        // Doctor/Nurse can upload for patients\r\n        else if (userRoles[msg.sender] == Role.Doctor || userRoles[msg.sender] == Role.Nurse) {\r\n            require(patientAddress != address(0), \"Patient address required\");\r\n            require(userRoles[patientAddress] == Role.Patient, \"Target must be a patient\");\r\n        }\r\n        // Patients cannot upload (only view their own)\r\n        else {\r\n            revert(\"Only Admin, Doctor, or Nurse can upload documents\");\r\n        }\r\n\r\n        Document memory newDoc = Document({\r\n            ipfsHash: ipfsHash,\r\n            fileName: fileName,\r\n            uploader: msg.sender,\r\n            patientAddress: patientAddress,\r\n            timestamp: block.timestamp,\r\n            isDeleted: false\r\n        });\r\n\r\n        userDocuments[patientAddress].push(newDoc);\r\n        uint256 docIndex = userDocuments[patientAddress].length - 1;\r\n        documentIndexByHash[ipfsHash] = docIndex;\r\n        patientDocuments[patientAddress].push(docIndex);\r\n\r\n        emit DocumentUploaded(msg.sender, patientAddress, ipfsHash, fileName, block.timestamp);\r\n    }\r\n\r\n    // Only Admin can delete documents\r\n    function deleteDocument(address patientAddress, uint256 documentIndex) public onlyAdmin {\r\n        require(documentIndex < userDocuments[patientAddress].length, \"Invalid document index\");\r\n        require(!userDocuments[patientAddress][documentIndex].isDeleted, \"Document already deleted\");\r\n        \r\n        userDocuments[patientAddress][documentIndex].isDeleted = true;\r\n        documentDeleted[patientAddress][documentIndex] = true;\r\n        \r\n        string memory ipfsHash = userDocuments[patientAddress][documentIndex].ipfsHash;\r\n        emit DocumentDeleted(msg.sender, patientAddress, ipfsHash, block.timestamp);\r\n    }\r\n\r\n    // Get documents for a specific patient\r\n    // Patients can only see their own documents\r\n    // Admin, Doctor, Nurse, Student can view patient documents\r\n    function getPatientDocuments(address patientAddress) public view returns (Document[] memory) {\r\n        require(userRoles[msg.sender] != Role.None, \"User not registered\");\r\n        \r\n        // Patients can only view their own documents\r\n        if (userRoles[msg.sender] == Role.Patient) {\r\n            require(msg.sender == patientAddress, \"Patients can only view their own documents\");\r\n        }\r\n        \r\n        // Filter out deleted documents\r\n        Document[] memory allDocs = userDocuments[patientAddress];\r\n        uint256 activeCount = 0;\r\n        \r\n        // Count active documents\r\n        for (uint256 i = 0; i < allDocs.length; i++) {\r\n            if (!allDocs[i].isDeleted) {\r\n                activeCount++;\r\n            }\r\n        }\r\n        \r\n        // Build result array\r\n        Document[] memory result = new Document[](activeCount);\r\n        uint256 resultIndex = 0;\r\n        \r\n        for (uint256 i = 0; i < allDocs.length; i++) {\r\n            if (!allDocs[i].isDeleted) {\r\n                result[resultIndex] = allDocs[i];\r\n                resultIndex++;\r\n            }\r\n        }\r\n        \r\n        return result;\r\n    }\r\n\r\n    // Get all documents uploaded by the caller\r\n    function getMyUploadedDocuments() public view onlyValidRole returns (Document[] memory) {\r\n        // This is for Admin, Doctor, Nurse to see what they uploaded\r\n        require(\r\n            userRoles[msg.sender] == Role.Admin || \r\n            userRoles[msg.sender] == Role.Doctor || \r\n            userRoles[msg.sender] == Role.Nurse,\r\n            \"Only Admin, Doctor, or Nurse can view uploaded documents\"\r\n        );\r\n        \r\n        // We need to iterate through all patients to find documents uploaded by msg.sender\r\n        // This is a simplified version - in production, you might want a mapping\r\n        // For now, return empty array as this requires more complex logic\r\n        Document[] memory empty;\r\n        return empty;\r\n    }\r\n\r\n    // Get user role\r\n    function getUserRole(address user) public view returns (Role) {\r\n        return userRoles[user];\r\n    }\r\n\r\n    // Check if user has a valid role\r\n    function isRegistered(address user) public view returns (bool) {\r\n        return userRoles[user] != Role.None;\r\n    }\r\n}\r\n",
  "sourcePath": "C:\\Users\\Swed\\OneDrive\\Desktop\\MediVault\\medivault-chain\\contracts\\MediVaultAccess.sol",
  "compiler": {
    "name": "solc",
    "version": "0.8.19+commit.7dd6d404.Emscripten.clang"
  },
  "schemaVersion": "3.4.16",
  "updatedAt": "2026-02-01T19:37:27.459Z",
  "networkType": "ethereum",
  "devdoc": {
    "kind": "dev",
    "methods": {},
    "version": 1
  },
  "userdoc": {
    "kind": "user",
    "methods": {},
    "version": 1
  }
}